:020000040800F2
:1000000038080020C5010008351800081D17000831
:1000100031180008F502000859200008000000000F
:100020000000000000000000000000003918000877
:10003000F902000800000000371800083B1800080B
:10004000DF010008DF010008DF010008DF01000810
:10005000DF010008DF010008DF010008DF01000800
:10006000DF010008DF010008DF010008DF010008F0
:10007000DF010008DF010008DF010008DF010008E0
:10008000DF010008DF010008DF010008DF010008D0
:10009000DF010008DF010008DF010008DF010008C0
:1000A000DF010008DF010008DF010008DF010008B0
:1000B000DF010008DF01000809190008DF0100085E
:1000C000DF010008DF010008DF010008DF01000890
:1000D000DF010008DF0100081D200008DF01000823
:1000E000DF010008DF010008DF010008DF01000870
:1000F000DF010008DF010008DF010008DF01000860
:10010000DF010008DF010008DF010008DF0100084F
:10011000DF010008DF010008DF010008DF0100083F
:10012000DF010008DF010008DF010008DF0100082F
:10013000DF010008DF010008DF010008DF0100081F
:10014000DF010008DF010008DF010008DF0100080F
:10015000DF010008DF010008DF010008DF010008FF
:10016000DF010008DF010008DF010008DF010008EF
:10017000DF010008DF010008DF01000800000000C7
:10018000DF010008DF010008DF010008DF010008CF
:10019000DF010008DF010008DF010008DF010008BF
:1001A000DF010008DF010008DF010008DFF810D0E0
:1001B00000F08EF80048004741300008AFF300809F
:1001C000380800200648804706480047FEE7FEE75B
:1001D000FEE7FEE7FEE7FEE7FEE7FEE7FEE7FEE7F7
:1001E000ED180008AD0100082DE9F05F054600207C
:1001F00092469B4688460646814640241BE0284698
:1002000041464746224600F053F853465A46C01A24
:10021000914110D311461846224600F03AF82D1AA3
:1002200067EB01084F4622460120002100F031F81B
:1002300017EB00094E41201EA4F10104DFDC484603
:1002400031462A464346BDE8F09F40EA01039B073A
:1002500003D009E008C9121F08C0042AFAD203E03B
:1002600011F8013B00F8013B521EF9D27047D2B29F
:1002700001E000F8012B491EFBD270470022F6E78F
:1002800010B513460A4604461946FFF7F0FF20460C
:1002900010BD202A04DB203A00FA02F1002070474A
:1002A0009140C2F1200320FA03F3194390407047B4
:1002B000202A04DB203A21FA02F00021704721FABB
:1002C00002F3D040C2F12002914008431946704722
:1002D000064C074D06E0E06840F0010394E8070093
:1002E00098471034AC42F6D3FFF764FF383D00085E
:1002F000583D000800BFFEE770477047014691F87F
:100300003500022803D08020486501207047052071
:1003100081F835000868006820F001000A68106064
:100320000020F3E770B5044600F024F906462546A0
:10033000681C10B104480078054400BF00F01AF9A9
:10034000801BA842FAD370BD08000020F8B5024611
:100350000B460025002400200021E6E0012606FAD5
:1003600001F51E6806EA0504AC4273D15E68012EF1
:1003700008D05E68022E05D05E68112E02D05E683D
:10038000122E13D190684F000326BE40B0434F0099
:10039000DE68BE4030439060506801268E40B04316
:1003A0001E79C6F300168E4030435060D0684F006F
:1003B0000326BE40B0434F009E68BE403043D0602D
:1003C0005E68022E02D05E68122E13D1CF0802F1B1
:1003D000200656F827004E07F70E0F26BE40B04302
:1003E0004F07FF0E1E69BE403043CF0802F12006C2
:1003F00046F8270010684F000326BE40B0431E7920
:1004000006F003064F00BE40304310605E6806F001
:100410008056B6F1805FA8D100BF00260096454EF9
:10042000366846F48046434F3E603E46366806F4E2
:100430008046009600BF00BF3F4E8F0856F8270049
:100440008E07370F0F26BE40B0433C4EB24202D15A
:1004500000262EE068E03A4EB24201D1012628E0A3
:10046000384EB24201D1022623E0374EB24201D1CA
:1004700003261EE0354EB24201D1042619E0344E67
:10048000B24201D1052614E0324EB24201D1062615
:100490000FE0314EB24201D107260AE02F4EB242A0
:1004A00001D1082605E02E4EB24201D1092600E016
:1004B0000A268F073F0FBE4030431F4E8F0846F875
:1004C0002700284E3068A0435E6806F48036B6F5F3
:1004D000803F00D12043234E3060361D3068A0435A
:1004E0005E6806F40036B6F5003F00D120431D4E8D
:1004F000361D3060361D3068A0435E6806F48016F5
:10050000B6F5801F00D12043164E08363060361DE8
:100510003068A0435E6806F40016B6F5001F00D1EF
:100520002043104E0C363060491C1029FFF416AFE2
:10053000F8BD000044380240083801400000024085
:100540000004024000080240000C0240001002407B
:100550000014024000180240001C0240002002402B
:1005600000240240003C01400AB1816101E00B041B
:100570008361704701480068704700000000002058
:100580000348006803490978084401490860704736
:10059000000000200800002010B50D48006840F45D
:1005A00000700B4908600846006840F480600860ED
:1005B0000846006840F480700860032000F0B4F83A
:1005C000002000F007F800F02BF8002010BD00001C
:1005D000003C024070B504460E4800784FF47A7132
:1005E000B1FBF0F00C490968B1FBF0F5284600F0CA
:1005F00079FC08B1012070BD102C07D200222146E1
:10060000501E00F053F80548046001E00120F2E7B5
:100610000020F0E7080000200C000020040000206B
:1006200008B500BF002000900E48006840F48040EC
:100630000C4908600846006800F48040009000BF44
:1006400000BF00BF00200090081F006840F08050ED
:10065000091F08600846006800F08050009000BF45
:1006600000BF08BD4438024010B5014608460028C6
:1006700007DB00F01F0301229A40034B440943F8B3
:10068000242000BF10BD000080E200E001460846C3
:10069000002809DB00F01F0301229A4043099B0058
:1006A00003F1E023C3F8002100BF70472DE9F05F9C
:1006B00080460D461646002701F0D0FC0746394615
:1006C0002A46334601F00700C0F1070ABAF1040FC9
:1006D00002D94FF0040A01E0C0F1070AD14600F147
:1006E000040ABAF1070F02D24FF0000A01E0A0F1AC
:1006F000030AD4464FF0010A0AFA09FAAAF1010ADC
:100700000AEA020A0AFA0CFA4FF0010B0BFA0CFB88
:10071000ABF1010B0BEA030B4AEA0B0421464046FE
:1007200001F0A4FCBDE8F09F00BF00F00702064BFB
:1007300019684FF6FF031940044B0B4343EA0221AB
:10074000014B196000BF70470CED00E00000FA0596
:1007500038B5002400BF002000901D48006840F01C
:1007600080501B4908600846006800F080500090E7
:1007700000BF00BF012017490864FFF7FBFE0446D5
:1007800007E0FFF7F7FE001BB0F57A7F01D90320E1
:1007900038BD1148406800F48030B0F5803FF0D19A
:1007A00001200C494864FFF7E5FE044607E0FFF727
:1007B000E1FE001BB0F57A7F01D90320E8E7064887
:1007C000406800F40030B0F5003FF0D10020DFE7D2
:1007D0004038024000000E420070004070B50446F0
:1007E0000D460CB9012070BD5848006800F00F009C
:1007F000A84209D255490D700846006800F00F0064
:10080000A84201D00120EEE7207800F00200022883
:100810001DD1207800F00400042805D14C48006860
:1008200040F4E0504A490860207800F008000828A9
:1008300005D14748006840F4604045490860444895
:10084000006820F0F000A168084341490860207862
:1008500000F00100A8B36068012807D13C480838BF
:100860000068C0F34040B8B90120BCE760680228C6
:1008700002D06068032807D1354808380068C0F303
:10088000406048B90120AEE7314808380068C0F33D
:10089000400008B90120A6E72D48006820F00300B9
:1008A000616808432A490860FFF764FE064609E0CC
:1008B000FFF760FE801B41F28831884202D9032095
:1008C00091E707E02248006800F00C006168B0EB97
:1008D000810FEDD11D48006800F00F00A84209D932
:1008E0001A490D700846006800F00F00A84201D0B8
:1008F000012078E7207800F00400042807D114488C
:10090000006820F4E050E16808431149086020784D
:1009100000F00800082808D10D48006820F4604065
:10092000216940EAC1000A49086000F03FF808491F
:100930000968C1F30311074A515CC84006490860C1
:1009400006480068FFF746FE00204CE7003C0240E6
:1009500008380240783A00080C000020040000200B
:1009600001480068704700000C00002000B5FFF748
:10097000F7FF04490968C1F38221034A515CC8406A
:1009800000BD000008380240883A000800B5FFF7B3
:10099000E7FF04490968C1F34231034A515CC8408A
:1009A00000BD000008380240883A00082DE9F047F1
:1009B000002400250026A1462548006800F00C0010
:1009C00020B1042805D008283AD105E0DFF884904A
:1009D00039E0DFF8849036E01D48001F006800F021
:1009E0003F041B48001F006800F4800078B11A48DB
:1009F0001749091F0968C1F38811A0FB017001465E
:100A0000224600233846FFF7EFFB05460EE011486B
:100A10000F49091F0968C1F38811A0FB0170014645
:100A2000224600233846FFF7DFFB05460848001F33
:100A30000068C0F30140401C4600B5FBF6F902E037
:100A4000DFF8109000BF00BF4846BDE8F087000007
:100A5000083802400024F40040787D01F8B50446CF
:100A60000CB90120F8BD207800F00100002874D0F6
:100A7000F948006800F00C0004280DD0F648006822
:100A800000F00C00082813D1F348001F006800F4A0
:100A90008000B0F5800F0BD1EF4808380068C0F334
:100AA0004040002859D06068002856D10120D9E77D
:100AB00000BF6068B0F5803F08D1E748083800689B
:100AC00040F48030E449083908601EE06068B0F501
:100AD000A02F0DD1E0480838006840F48020DE499E
:100AE000083908600846006840F4803008600CE06F
:100AF000D9480838006820F48030D74908390860A0
:100B00000846006820F48020086000BF606890B14B
:100B1000FFF730FD054606E0FFF72CFD401B64287B
:100B200001D903209EE7CC4808380068C0F3404054
:100B30000028F1D011E0FFF71DFD054606E0FFF7A4
:100B400019FD401B642801D903208BE7C2480838EF
:100B50000068C0F340400028F1D1207800F0020086
:100B600002285FD1BC48006800F00C0058B1BA48B8
:100B7000006800F00C0008281CD1B748001F00686E
:100B800000F48000B0B9B44808380068C0F34000F1
:100B900020B1E068012801D0012063E7AE480838A1
:100BA000006820F0F800216940EAC100AA4908392C
:100BB000086037E0E06800B30120A8490860FFF74B
:100BC000D9FC054606E0FFF7D5FC401B022801D9F9
:100BD000032047E7A04808380068C0F34000002819
:100BE000F1D09D480838006820F0F800216940EAFB
:100BF000C10099490839086014E00020974908604D
:100C0000FFF7B8FC054606E0FFF7B4FC401B0228DE
:100C100001D9032026E7904808380068C0F3400057
:100C20000028F1D1207800F0080008282CD1606954
:100C3000A8B101208A490860FFF79CFC054606E040
:100C4000FFF798FC401B022801D903200AE78248DD
:100C50006C300068C0F340000028F1D014E00020A0
:100C60007F490860FFF786FC054606E0FFF782FC37
:100C7000401B022801D90320F4E677486C30006855
:100C8000C0F340000028F1D1207800F004000428CF
:100C900070D1002770483830006800F0805090B95B
:100CA00000BF002000906C483830006840F0805051
:100CB0006949383108600846006800F080500090AB
:100CC00000BF00BF01276748006800F48070B0B91A
:100CD0006448006840F4807062490860FFF74AFC8D
:100CE000054606E0FFF746FC401B022801D9032019
:100CF000B8E65C48006800F480700028F2D000BFBD
:100D0000A068012808D154486830006840F001000C
:100D10005149683108601DE0A06805280DD14E4892
:100D20006830006840F004004B49683108600846AC
:100D3000006840F0010008600CE047486830006837
:100D400020F001004449683108600846006820F03E
:100D50000400086000BFA068A8B1FFF70BFC0546BF
:100D600009E0FFF707FC401B41F28831884202D9B5
:100D7000032077E626E0384868300068C0F340007A
:100D80000028EED013E0FFF7F5FB054608E0FFF77B
:100D9000F1FB401B41F28831884201D9032061E612
:100DA0002D4868300068C0F340000028EFD1012FC3
:100DB00007D129483830006820F080502649383162
:100DC000086000BFA069002845D02348006800F0F3
:100DD0000C0008285DD0A069022845D100201F49D9
:100DE0000866FFF7C7FB054606E0FFF7C3FB401B9D
:100DF000022801D9032035E6174808380068C0F3F7
:100E000040600028F1D1D4E907010843616A40EA53
:100E100081110122A06AC2EB500041EA00412C205E
:100E2000005D41EA00600C49091F086001200B4980
:100E30000866FFF79FFB054606E0FFF79BFB401B9C
:100E4000022801D903200DE6034808380068C0F3E2
:100E500040600028F1D03FE00838024000004742DF
:100E6000800E47420070004000201C490866FFF7D2
:100E700081FB054606E0FFF77DFB401B022801D9F8
:100E80000320EFE516480068C0F340600028F2D167
:100E900022E0A069012800D1E4E51148001D0668A0
:100EA00006F48001E069814214D106F03F01206A16
:100EB00081420FD147F6C0703040616A884209D143
:100EC00006F44031A06A814204D106F07061E06A04
:100ED000814201D00120C5E50020C3E50000474262
:100EE0000038024070B504462546681EB0F1807F88
:100EF00001D301200FE0681E4FF0E02148610F216F
:100F00004FF0FF3001F0B2F800204FF0E02188618F
:100F100007200861002070BD7047704730B5024659
:100F20000B4600BF92F83C00012801D1022030BDE1
:100F3000012082F83C0000BF022082F83D001068CA
:100F400044681068816824F07004186804431068CD
:100F50004460184D1068A8421BD01068B0F1804F53
:100F600017D0154D1068A84213D0144D1068A84230
:100F70000FD0134D1068A8420BD0124D1068A84234
:100F800007D0114D1068A84203D0104D1068A84238
:100F900005D121F08001586801431068816001206B
:100FA00082F83D0000BF002082F83C0000BF00BF77
:100FB000BDE70000000001400004004000080040C0
:100FC000000C0040000401400040014000180040B7
:100FD00010B504460CB9012010BD94F83D0028B9A5
:100FE000002084F83C00204600F00CF8022084F831
:100FF0003D00211D206800F08FFC012084F83D0099
:101000000020E9E738B504460E492068884217D128
:1010100000BF002000900C48006840F004000A491E
:1010200008600846006800F00400009000BF00BFA0
:10103000012200211E20FFF739FB1E20FFF726FBAF
:1010400038BD000000080040403802402DE9F04162
:1010500004460D4600BF94F83C00012802D102204E
:10106000BDE8F081012084F83C0000BF022084F834
:101070003D002068866826F0770626F47F462068C3
:1010800086602868502833D00CDC202850D004DC3F
:1010900000284BD0102851D149E0302849D04028B1
:1010A0004CD139E060282DD0702807D0B0F5805F92
:1010B00003D0B0F5005F41D10DE040E0D5E9021367
:1010C0006A68206800F094FC2068866846F077061D
:1010D0002068866033E0D5E902136A68206800F072
:1010E00087FC2068806840F480402168886026E0A2
:1010F000EA686968206800F08FFC5021206800F0E1
:1011000082FC1CE0EA686968206800F098FC6021B5
:10111000206800F078FC12E0EA686968206800F056
:101120007BFC4021206800F06EFC08E000BF00BF9F
:1011300000BF2968206800F066FC00E000BF00BF27
:10114000012084F83D0000BF002084F83C0000BF6F
:1011500000BF85E7704710B5044620680069C0F3FA
:101160004000D8B12068C068C0F34000B0B16FF053
:10117000020021680861012020772068806900F062
:10118000030018B12046FFF7E5FF05E0204600F018
:10119000ADF8204600F0ABF8002020772068006909
:1011A000C0F38000D8B12068C068C0F38000B0B13F
:1011B0006FF00400216808610220207720688069B0
:1011C00000F4407018B12046FFF7C4FF05E0204648
:1011D00000F08CF8204600F08AF800202077206884
:1011E0000069C0F3C000D8B12068C068C0F3C00077
:1011F000B0B16FF0080021680861042020772068F2
:10120000C06900F0030018B12046FFF7A3FF05E016
:10121000204600F06BF8204600F069F800202077A7
:1012200020680069C0F30010D8B12068C068C0F31E
:101230000010B0B16FF0100021680861082020771D
:101240002068C06900F4407018B12046FFF782FFA3
:1012500005E0204600F04AF8204600F048F800205B
:1012600020772068006900F0010058B12068C0684C
:1012700000F0010030B16FF00100216808612046E4
:1012800000F036F820680069C0F3C01058B120683B
:10129000C068C0F3C01030B16FF0800021680861F1
:1012A0002046FFF739FE20680069C0F3801058B16E
:1012B0002068C068C0F3801030B16FF04000216832
:1012C0000861204600F019F820680069C0F340105A
:1012D00058B12068C068C0F3401030B16FF02000F2
:1012E000216808612046FFF718FE10BD704770475F
:1012F00010B5044601F088FF10BD7047704700002C
:101300002DE9F0470446206805682068C668206813
:1013100047694FF00008C14605F00F08B8F1000F0B
:101320000AD105F0200038B106F0200020B1204697
:1013300000F0C3FBBDE8F087B8F1000F72D007F0F2
:10134000010018B906F4907000286BD005F0010078
:1013500030B106F4807018B1E06B40F00100E0633A
:1013600005F0040030B107F0010018B1E06B40F067
:101370000200E06305F0020030B107F0010018B18F
:10138000E06B40F00400E06305F0080048B106F0AF
:10139000200010B907F0010018B1E06B40F0080020
:1013A000E063E06B70B305F0200028B106F0200088
:1013B00010B1204600F081FB20684069C0F380191D
:1013C000E06B00F0080010B9B9F1000F23D02046FF
:1013D00000F053FB2068406900F04000402816D11F
:1013E0002068406920F0400021684861606B50B17E
:1013F0001748616B0865606BFEF780FF10B1606B8A
:10140000016D88470CE02046FFF778FF08E0204692
:10141000FFF774FF04E02046FFF770FF0020E06351
:1014200088E7FFE705F0800030B106F0800018B1D2
:10143000204600F089FD7DE705F0400030B106F060
:10144000400018B1204600F028FB73E700BF71E7A9
:10145000671A000810B504460CB9012010BDA06938
:1014600000B100E000BF94F8390028B9002084F8EA
:101470003800204600F028F8242084F8390020683D
:10148000C06820F400502168C860204600F068FB66
:101490002068006920F49040216808612068406954
:1014A00020F02A00216848612068C06840F400509C
:1014B0002168C8600020E063202084F8390084F8A7
:1014C0003A000020CAE7000010B586B00446142197
:1014D00001A8FEF7D3FE1F492068884237D100BF1C
:1014E000002000901C48006840F400301A49086051
:1014F0000846006800F40030009000BF00BF00BF45
:101500000020009014481038006840F0080012498C
:10151000103908600846006800F00800009000BF1D
:1015200000BF602001900220029000200390032061
:1015300004900720059001A90848FEF707FF002244
:1015400011462620FFF7B2F82620FFF79FF806B0D5
:1015500010BD00000044004040380240000C024032
:101560002DE9F84304460D4616461F464FF0000984
:1015700094F83A00202861D105B116B90120BDE8E0
:10158000F88300BF94F83800012801D10220F6E763
:10159000012084F8380000BF0020E063222084F896
:1015A0003A00FEF7E7FF8146A685E68500BF0020EA
:1015B00084F8380000BF39E0E08D401EE085A06867
:1015C000B0F5805F1BD14B460022202120460097BA
:1015D00000F0EEFC08B10320D1E7A846206938B935
:1015E00020684068C0F30800A8F80000AD1C1DE0AA
:1015F00020684068C0B2A8F800006D1C16E04B4699
:10160000002220212046009700F0D2FC08B10320E0
:10161000B5E7206920B92068406805F8010B05E0AE
:101620002068406800F07F0005F8010BE08D00287D
:10163000C2D1202084F83A000020A0E702209EE7D3
:1016400070472DE9F84304460D4616461F464FF0F5
:10165000000994F8390020285DD105B116B90120A0
:10166000BDE8F88300BF94F83800012801D10220BA
:10167000F6E7012084F8380000BF0020E063212055
:1016800084F83900FEF776FF8146A684E68400BF21
:10169000002084F8380000BF2BE0E08C401EE0847E
:1016A000A068B0F5805F16D14B460022802120460D
:1016B000009700F07DFC08B10320D1E7A846B8F8F8
:1016C0000000C0F3080021684860206908B9AD1C1B
:1016D0000FE06D1C0DE04B46002280212046009754
:1016E00000F066FC08B10320BAE715F8010B216889
:1016F0004860E08C0028D0D14B4600224021204693
:10170000009700F055FC08B10320A9E7202084F8D9
:1017100039000020A4E70220A2E7704700BFFEE7DF
:1017200008B500BF002000901548006840F0800018
:10173000134908600846006800F08000009000BF70
:1017400000BF00BF002000900846006840F0010084
:1017500008600846006800F00100009000BF00BF6C
:1017600000BF002000900846006840F002000860BA
:101770000846006800F00200009000BF00BF08BDEE
:101780003038024000B587B00020039004900590E7
:1017900006900190029014481449086041F2931099
:1017A00048600021114881602321C160002101614E
:1017B0008161FFF70DFC08B1FEF79FFD4FF48050EB
:1017C000039003A90948FFF741FC08B1FEF795FD16
:1017D00000200190029001A90448FFF79FFB08B187
:1017E000FEF78BFD07B000BD00080040040100209B
:1017F00070B504460D461646022C00D070BD0A484E
:101800000A4908600846456000218160C1600661A0
:101810000C21416100218161C161FFF71BFE08B10C
:10182000FEF76BFD00BFE9E70044004044010020E3
:1018300000BFFEE770477047704710B5FEF7A0FE87
:1018400010BD000000B593B000BF002001902548F6
:10185000006840F08050234908600846006800F0A6
:101860008050019000BF00BF00BF002001901E48C3
:10187000006840F440401C4908600846006800F4D5
:101880004040019000BF00BF01200290000403907F
:10189000022008904105099119210A914FF4B47171
:1018A0000B9102210C9107210D9102A8FFF7D6F8A8
:1018B00008B100BFFEE7FEF74BFF0F200E9002209D
:1018C0000F90002010904FF4A05011904FF48050D2
:1018D000129005210EA8FEF781FF08B100BFFEE7B8
:1018E00013B000BD40380240007000400548006859
:1018F00040F47000034908604FF0006001498039EE
:101900000860704788ED00E010B50248FFF723FC3F
:1019100010BD00000401002010B50268294B984258
:101920000ED0B0F1804F0BD0274B984208D0274BF8
:10193000984205D0264B984202D0264B984203D1BC
:1019400022F070024B681A431E4B984220D0B0F12F
:10195000804F1DD01C4B98421AD01C4B984217D078
:101960001B4B984214D01B4B984211D01A4B9842F3
:101970000ED01A4B98420BD0194B984208D0194BF5
:10198000984205D0184B984202D0184B984203D188
:1019900022F44072CB681A4322F080034C6943EA78
:1019A000040202608B68C3620B688362054B984235
:1019B00002D0084B984201D10B69036301234361B4
:1019C00010BD00000000014000040040000800407D
:1019D000000C004000040140004001400044014070
:1019E0000048014000180040001C0040002000405A
:1019F00030B50C46816821F47F4142EA0325254336
:101A00002943816030BD0A46816821F0700142F0AF
:101A1000070319438160704730B50B461446026ACC
:101A2000056A25F001050562816921F0F00141EAAE
:101A3000041122F00A021A438161026230BD30B5FE
:101A40000B461446056A25F0100505628169026A95
:101A500021F4704141EA043122F0A00242EA03126B
:101A60008161026230BD70B50546AC6B0020E08537
:101A7000E0842046FFF742FC70BD0168C96821F48C
:101A800090710268D1600168496921F00101026822
:101A90005161202180F83A10704710B50446206843
:101AA000C06820F040002168C860202084F8390018
:101AB0002046FFF732FE002010BD70B5044694F8B2
:101AC0003A0022284AD1A068B0F5805F13D1A56AF8
:101AD000206940B920684068C0F308002880A06AE7
:101AE000801CA06219E020684068C0B22880A06A0B
:101AF000401CA06211E0206938B920684068C1B27A
:101B0000A26A501CA062117007E02068406800F0D3
:101B10007F01A26A501CA0621170E08D401E80B24D
:101B2000E085C8B92068C06820F020002168C8603E
:101B30002068C06820F480702168C860206840690F
:101B400020F0010021684861202084F83A002046F6
:101B5000FFF776FD002070BD0020FCE70220FAE7C9
:101B60002DE9F84F04462068006920F44050E168F0
:101B70000843216808612169A06808436169084336
:101B8000E169084300902068C06849F20C6188430D
:101B9000009908432168C8602068406920F44070BB
:101BA000A169084321684861E069B0F5004F75D12B
:101BB000E3492068884203D0E249206888426FD117
:101BC000FEF7E4FE814602206168A0FB01510B464E
:101BD0001920A9FB00712A463846FEF705FB64214F
:101BE000B0FBF1F04FEA001A02206168A0FB01513E
:101BF0000B461920A9FB00712A463846FEF7F4FA75
:101C0000074602206168A0FB01510B461920A9FB81
:101C100000B12A465846FEF7E7FA6421B0FBF1F01E
:101C200000EBC00101EB0010A7EB8000322101EBBB
:101C3000C0006421B0FBF1F000F0F8000AEB400AAC
:101C400002206168A0FB01510B461920A9FB00711D
:101C50002A463846FEF7C8FA074602206168A0FB0C
:101C600001510B461920A9FB00B12A465846FEF740
:101C7000BBFA6421B0FBF1F000EBC00101EB0010F6
:101C8000A7EB8000322101EBC0006421B0FBF1F032
:101C900000F007005044216888604FE16EE0FFE7E4
:101CA000FEF764FE814602206168A0FB01510B46ED
:101CB0001920A9FB00712A463846FEF795FA6421DF
:101CC000B0FBF1F04FEA001A02206168A0FB01515D
:101CD0000B461920A9FB00712A463846FEF784FA04
:101CE000074602206168A0FB01510B461920A9FBA1
:101CF00000B12A465846FEF777FA6421B0FBF1F0AE
:101D000000EBC00101EB0010A7EB8000322101EBDA
:101D1000C0006421B0FBF1F000F0F8000AEB400ACB
:101D200002206168A0FB01510B461920A9FB00713C
:101D30002A463846FEF758FA074602206168A0FB9B
:101D4000015003461920A9FB00B12A465846FEF768
:101D50004BFA6421B0FBF1F000EBC00101EB001085
:101D6000A7EB8000322101EBC0006421B0FBF1F051
:101D700000F00700504421688860DFE07049206867
:101D8000884203D06F49206888426BD1FEF7FEFD80
:101D9000814604206168A0FB01510B461920A9FB74
:101DA00000712A463846FEF71FFA82460420616811
:101DB000A0FB01510B461920A9FB00712A463846A9
:101DC000FEF712FA6421B0FBF1F000EBC00101EB69
:101DD0000010AAEB8000322101EB00106421B0FB5F
:101DE000F1F000F0F00A04206168A0FB0150034606
:101DF0001920A9FB00712A463846FEF7F5F964213F
:101E0000B0FBF1F00AEB001A04206168A0FB01515D
:101E10000B461920A9FB00712A463846FEF7E4F963
:101E2000074604206168A0FB015003461920A9FB66
:101E300000B12A465846FEF7D7F96421B0FBF1F00D
:101E400000EBC00101EB0010A7EB8000322101EB99
:101E500000106421B0FBF1F000F00F005044216845
:101E600088606BE0FEF782FD814604206168A0FB7C
:101E7000015003461920A9FB00712A463846FEF797
:101E8000B3F9824604206168A0FB01500346192083
:101E9000A9FB00712A463846FEF7A6F96421B0FB7B
:101EA000F1F000EBC00101EB0010AAEB8000322141
:101EB00001EB00106421B0FBF1F000F0F00A042007
:101EC0006168A0FB015003461920A9FB00712A4656
:101ED0003846FEF789F96421B0FBF1F00AEB001AED
:101EE00004206168A0FB017003461920A9FB005083
:101EF00001463A462846FEF777F90746042061680E
:101F0000A0FB015003461920A9FB00B12A46584600
:101F1000FEF76AF96421B0FBF1F000EBC00101EBC0
:101F20000010A7EB8000322101EB00106421B0FB10
:101F3000F1F000F00F00504421688860BDE8F88F90
:101F40000010014000140140014691F83900212899
:101F50002CD18868B0F5805F0FD10A6A1088C0F371
:101F600008000B685860086918B9086A801C086284
:101F700009E0086A401C086205E00B6A581C086208
:101F800018780B685860C88C401E80B2C88458B955
:101F90000868C06820F080000B68D8600868C068D6
:101FA00040F040000B68D860002070470220FCE73A
:101FB0002DE9F04104460D4617469846069E21E05D
:101FC000701CF8B12EB1FEF7D5FAA0EB0800B042B4
:101FD00018D92068C06820F4D0702168C8602068D3
:101FE000406920F0010021684861202084F8390010
:101FF00084F83A0000BF002084F8380000BF0320B6
:10200000BDE8F081206800682840A84201D1012085
:1020100000E00020B842D3D00020F1E710B50D4811
:10202000FFF76EF90B480068C06800F0200008B1A7
:1020300001F0F2F807480068C06800F0800008B1BD
:1020400001F0F2F82620FEF70FFB0248FFF758F9DF
:1020500010BD00004401002000BFFEE702480068F8
:10206000C0F30220704700000CED00E010B500281E
:1020700004DB0A07130E054A135406E00A07140E80
:10208000034A00F00F031B1FD45410BD00E400E00E
:1020900018ED00E00EB507460E46144619491AA081
:1020A00000F0C2FF1749384600F0BEFF15491CA0DA
:1020B00000F0BAFF1349304600F0B6FF11491AA0EC
:1020C00000F0B2FF03AD0021681E054601700A2131
:1020D000681E054601700CE00A2094FBF0F100FB3D
:1020E00011403030C1B2681E054601700A2094FBD1
:1020F000F0F4002CF0DC0349284600F095FF00F0D6
:102100002CF80000000100202A2A2A206173736540
:102110007274696F6E206661696C65643A200000B4
:102120002C2066696C6520002C206C696E6520008F
:1021300002E008C8121F08C1002AFAD17047704790
:10214000002001E001C1121F002AFBD1704780F37B
:102150001088704780F31088704700BFFEE70000CA
:102160002DE9F04180460C4615461E460027012009
:10217000FFF7EDFF0A200C49087033460722294675
:10218000204601F0D9FA012801D0032706E044F6E1
:10219000206001F0EFFA012800D003270020FFF7AC
:1021A000D6FF3846BDE8F081230000202DE9F0413C
:1021B00004460D46164600270120FFF7C8FF1448C5
:1021C0000088FF2800DC04E09C2212A11BA0FFF77E
:1021D00061FF0F480088032813DB0D480188214860
:1021E000006801F000F860B91E48006800782070AF
:1021F00007480088801E30801A480068401C28600C
:1022000000E005270020FFF7A2FF3846BDE8F08177
:10221000180000202E2E5C557365725C53544D33AC
:10222000324D425C6D6F646275735C6173636969A2
:102230005C6D6261736369692E630000757352633C
:1022400076427566666572506F73203C204D425F22
:102250005345525F5044555F53495A455F4D41586D
:1022600000000000140000202DE9F04104460D4656
:1022700016464FF000080120FFF769FF1748007865
:1022800018BB681E164908600120164908801448CA
:1022900000680470084600883044088008460188B9
:1022A0000F48006800F09FFF07460E490888411C50
:1022B0000C4A11800C4909680F5401200B49087021
:1022C0000121002000F0D6FF01E04FF005080020BA
:1022D000FFF73DFF4046BDE8F081000011000020FF
:1022E0001C0000202000002014000020100000200E
:1022F00010B50120FFF72BFF0021012000F0BAFFED
:10230000002004490870FFF722FF002001F0F8F9CF
:1023100010BD00001100002010B50120FFF717FFCD
:102320000021084600F0A6FF00F0E6FF0020FFF7BE
:102330000EFF10BD10B5002406480078012806D114
:1023400005480068804700200249087000E0062424
:10235000204610BD360000203C0000202DE9F05F33
:1023600006460D464FF0000B2888052848D17078A6
:102370004FEA0029B07840EA090909F101001FFA83
:1023800080F9F078040230790443012C35DBB4F590
:10239000FA6F32DA374600202880012007F8010B57
:1023A0002888401C288004F0070040B12046E1172F
:1023B00004EB5171C910491C01F0FF0805E02046EB
:1023C000E11704EB5171C1F3C70807F8018B2888A6
:1023D000401C2880002322464946384600F084FCF1
:1023E0008246BAF1000F04D0504600F0ABFE83469F
:1023F00008E028884044288004E04FF0030B01E007
:102400004FF0030B5846BDE8F09F2DE9F05F0646FC
:102410000D464FF0000B2888052847D170784FEA09
:102420000029B07840EA090909F101001FFA80F992
:10243000F078040230790443012C34DBB4F5FA6FF0
:1024400031DA374600202880022007F8010B28885F
:10245000401C288004F0070040B12046E11704EB3F
:102460005171C910491C01F0FF0805E02046E11731
:1024700004EB5171C1F3C70807F8018B2888401C91
:10248000288022464946384600F0C8FC8246BAF108
:10249000000F04D0504600F055FE834608E028881F
:1024A0004044288004E04FF0030B01E04FF0030BA1
:1024B0005846BDE8F09F2DE9F04705460C464FF021
:1024C000000A2088052837D168784FEA0028A878C4
:1024D00040EA080808F101001FFA80F8E8780602CF
:1024E0002E79012E25DB7D2E23DC2F460020208037
:1024F000032007F8010B2088401C20807006000E86
:1025000007F8010B2088401C2080002332464146FA
:10251000384600F0E7FC8146B9F1000F04D0484688
:1025200000F010FE824609E0208800EB4600208083
:1025300004E04FF0030A01E04FF0030A5046BDE803
:10254000F0872DE9F04705460C464FF0000A208839
:10255000052837D168784FEA0028A87840EA0808AB
:1025600008F101001FFA80F8E8780602287906438E
:10257000012E24DB7D2E22DA2F460020208004202D
:1025800007F8010B2088401C20807006000E07F819
:10259000010B2088401C208032464146384600F01E
:1025A000FBFC8146B9F1000F04D0484600F0CAFD9B
:1025B000824609E0208800EB4600208004E04FF0CE
:1025C000030A01E04FF0030A5046BDE8F0872DE909
:1025D000FC5F04460D460020009028880A285DDB39
:1025E00060784FEA002AA07840EA0A0A0AF101005E
:1025F0001FFA80FAE07806022079064360794FEAF4
:10260000002BA07940EA0B0B0BF101001FFA80FBB5
:10261000E0790702207A0743607A0190012E3BDBC4
:102620007D2E39DC012F37DB792F35DC79000198DD
:10263000814231D101233A46594604F10A0000F0A3
:1026400051FC8146B9F1000F1ED1A0460020288020
:10265000172008F8010B2888401C28807006000EFF
:1026600008F8010B2888401C288000233246514678
:10267000404600F037FC8146B9F1000F04D12888AC
:10268000022101FB06002880B9F1000F06D0484660
:1026900000F058FD009001E0032000900098BDE894
:1026A000FC9F000070B505460C46064802880649A6
:1026B000681CFDF7CAFD03480088401C20800020EC
:1026C00070BD000024000020840100202DE9F843A3
:1026D00004460F464FF000083888052829D1607855
:1026E0000502A0780543681C85B22079F0B9E0782E
:1026F000FF2801D0E078C8B900208DF80100E0780B
:10270000FF2803D101208DF8000002E000208DF8A1
:10271000000001231A462946684600F0E5FA0646FD
:102720004EB1304600F00EFD804604E04FF0030845
:1027300001E04FF003084046BDE8F8832DE9F04181
:1027400004460F464FF000083888052812D16078FB
:102750000502A0780543681C85B201231A46294664
:10276000E01C00F0BFFB064636B1304600F0EAFC44
:10277000804601E04FF003084046BDE8F0812DE9B6
:10278000F05F05460E464FF0000B3088052839DD16
:1027900068780702A8780743781C87B2E8780402B3
:1027A0002879044395F805A004F0070040B12046BD
:1027B000E11704EB5171C910491C01F0FF0805E055
:1027C0002046E11704EB5171C1F3C708012C16DB59
:1027D000B4F5F66F13DCD04511D1012322463946FA
:1027E000A81D00F081FA8146B9F1000F04D04846D7
:1027F00000F0A8FC834607E00520308004E04FF09D
:10280000030B01E04FF0030B5846BDE8F09F2DE9A4
:10281000F04704460E464FF0000A3088062828DBB1
:1028200060780702A0780743781C87B2E078050239
:102830002079054394F80590012D17DB782D15DCE0
:102840006806000E484511D101232A463946A01DCD
:1028500000F048FB8046B8F1000F04D0404600F07D
:1028600071FC824607E00520308004E04FF0030A47
:1028700001E04FF0030A5046BDE8F0872DE9F0472C
:1028800005460C4616461F46DDF820904FF000081E
:102890001CB1012C01DBF72C02DD4FF0020859E0DE
:1028A0002E48047015B1012D42D120E02C482D494D
:1028B00008602D482D4908602D482E4908602E4893
:1028C0002E49086000202E4908602E482E490860D5
:1028D0002E482F4908602F482F4908604B463A463A
:1028E00031461E48007800F007F9804623E02B4867
:1028F0001C4908602A481D4908602A481D4908608B
:1029000029481E49086000201D49086027481E49C3
:10291000086027481E49086026481F4908604B4642
:102920003A4631460D480078FFF71AFC804602E02F
:102930004FF0020800BF00BFB8F1000F0AD100F04D
:10294000D7FE10B94FF0030804E01B4805700120C2
:102950001A4908704046BDE8F087000034000020A6
:10296000A52C00083C000020CD2C000840000020D1
:10297000112C000838000020552B000844000020CE
:10298000480000207D3700084C000020E538000892
:10299000500000205938000854000020F12200089F
:1029A0001923000869220008AD21000889330008B6
:1029B000813500080D350008350000203600002064
:1029C00038B500254148007808B1062038BD684672
:1029D00000F07CFE012877D19DF8000030B101287D
:1029E00005D0022818D003286DD16BE06BE0384A7F
:1029F00038493948394B1B68984705465DB9364810
:102A0000007837490978884202D03348007810B9F5
:102A1000022000F075FE56E02E480068007831492B
:102A20000870012030490870002417E02F4810F882
:102A3000340000B914E02D4810F834002949097811
:102A400088420AD1294800EBC40021494268214844
:102A5000006890472449087002E0641C102CE5DBF4
:102A600000BF1D48007858B31F480078C8B1002047
:102A7000174908801B48007840F0800114480288FC
:102A80000088401C124B1880124800688154164878
:102A90000278184601880088401C18800D4800689C
:102AA000425413480078012800D100BF084802882A
:102AB000084801680A4800780E4B1B68984705468D
:102AC00001E001E000BF00BF00207FE736000020EA
:102AD000E6000020E0000020E40000204400002088
:102AE00034000020E5000020E80000206000002005
:102AF00035000020380000202DE9F04781460E46C1
:102B000014461F464FF000080120FFF723FB3B4609
:102B100008222146304600F00FFE012802D04FF077
:102B200003080FE0B4F5964F01D9232503E06000B8
:102B30000749B1FBF0F5A8B200F01CFE012801D056
:102B40004FF003080020FFF705FB4046BDE8F08783
:102B5000A07F17002DE9F04104460D4616464FF0C0
:102B6000000800270120FFF7F5FA14480088FF2825
:102B700000DC04E09C2212A11AA0FFF78BFA0F4898
:102B80000088042812DB0D480188204800F056FB1D
:102B900060B91E480078207008480088C01E308048
:102BA0001A48401C28604FF0010800E0052700206B
:102BB000FFF7D0FA3846BDE8F0810000320000206F
:102BC0002E2E5C557365725C53544D33324D425C0E
:102BD0006D6F646275735C7274755C6D627274752E
:102BE0002E63000075735263764275666665725097
:102BF0006F73203C204D425F5345525F5044555FF8
:102C000053495A455F4D415800000000A40100207F
:102C10002DE9F04105460E4617464FF00008012009
:102C2000FFF798FA1A480078012829D1701E19492F
:102C30000860012018490880164800680570084699
:102C4000008838440880084601881248006800F06F
:102C5000F5FA044610490888411C0F4B19800F49AA
:102C60000C54221219460888411C19800B490A5439
:102C700001200B4908700121002000F0FBFA01E05F
:102C80004FF005080020FFF765FA4046BDE8F081E7
:102C9000290000202C00002030000020A40100208A
:102CA0002800002010B50120FFF754FA0020064943
:102CB00008700021012000F0DDFA00F049FB00203F
:102CC000FFF748FA10BD00002900002010B50120D0
:102CD000FFF740FA0021084600F0CCFA00F00CFBA8
:102CE0000020FFF737FA10BD2DE9FF5F05460E46BD
:102CF00014469A46002003902046E11704EB5171D8
:102D0000C910491C1FFA81F8DFF8089100200290D1
:102D100040200190404800880090701E86B20298C2
:102D2000864271DB3219DDE90110084482426BDC16
:102D30000099711A88B2C11700EB5171CF10009938
:102D4000711A88B2C11700EB5171C910A0EBC10113
:102D50001FFA81FBBAF1000F03D0BAF1010F51D174
:102D600026E00EE039467A1C97B201EB09000822F2
:102D7000594600F019FE05F8010BA8F101001FFAF1
:102D800080F8B8F1000FEDDC6D1E2046E11704EB72
:102D90005171C910A4EBC1018CB22878C4F10801AB
:102DA000884028702878C4F108010841287029E07B
:102DB0000EE015F8013B39467A1C97B201EB090089
:102DC0000822594600F006FEA8F101001FFA80F81B
:102DD000B8F1010FEDDC2046E11704EB5171C91089
:102DE000A4EBC1018CB264B115F8013BE2B23946E3
:102DF00007F1010C1FFA8CF701EB0900594600F0AE
:102E0000E9FD00BF02E0FFE701200390039804B052
:102E1000BDE8F09FF0000020EE0000202DE9FE4FFD
:102E200005460E461446002002902046E11704EBAA
:102E30005171C910491C1FFA81F9284801904FF0BF
:102E4000000A102000902648B0F800B0701E86B22C
:102E500056453DDB311900985044814238DCA6EBE1
:102E60000B0188B2C11700EB5171CF10A6EB0B011B
:102E700088B2C11700EB5171C910A0EBC1011FFA54
:102E800081F80EE039467A1C97B2019A8818082218
:102E9000414600F089FD05F8010BA9F101001FFA78
:102EA00080F9B9F1000FEDDC6D1E2046E11704EB4F
:102EB0005171C910A4EBC1018CB22878C4F108018A
:102EC000884028702878C4F108010841287001E082
:102ED000012002900298BDE8FE8F0000EC00002067
:102EE000EA0000202DE9F04704460D461E4600206A
:102EF000274B01274FF0640CDFF89890B9F8008059
:102F0000A5F101091FFA89F5BD423EDB05EB020977
:102F100007EB0C0AD14538DCA5EB08091FFA89F14B
:102F200016B1012E30D115E011E033F811904FEABF
:102F3000292904F8019B13F8119004F8019B01F171
:102F400001091FFA89F1A2F101091FFA89F2002A89
:102F5000EBDC19E015E014F801AB4FEA0A2923F87D
:102F6000119014F8019B33F811A049EA0A0923F8DB
:102F7000119001F101091FFA89F1A2F101091FFA6B
:102F800089F2002AE7DC00BF00E00120BDE8F087FD
:102F90006C030020FA0000202DE9F04303460020D6
:102FA000174D00266427DFF85C80B8F800C0A1F157
:102FB00001081FFA88F1B1421FDB01EB020806EBA2
:102FC0000709C84519DCA1EB0C081FFA88F411E0C9
:102FD00035F814804FEA282803F8018B15F814807F
:102FE00003F8018B04F101081FFA88F4A2F101082B
:102FF0001FFA88F2002AEBDC00E00120BDE8F08334
:10300000A4020020F800002070B505460C460548D3
:10301000844203D1284600F00FF970BD4FF0FF3015
:10302000FBE700000001002070B50D46044602E0F9
:103030002946FFF7E9FF14F8010B0028F8D170BD0D
:1030400008B5FDF7A9FAFEF7FDFBFEF769FBFEF7F1
:1030500099FB00204FF4E133022201210090FFF799
:103060000DFCFFF767F94CE0FDF784FAC0B2254983
:103070000880FDF77FFAC0F3072022494880FDF75A
:1030800079FAC0F307401F498880FDF773FA000EF4
:103090001C49C880FDF76EFAC0B21B490880FDF7D5
:1030A00069FAC0F3072018494880FDF763FAC0F3B6
:1030B000074015498880FDF75DFA000E1249C88067
:1030C000FDF758FA11490870FDF754FA000A0F4944
:1030D0004870FDF74FFA000C0C498870FDF74AFA6A
:1030E000000E0A49C870FDF745FA09490870FDF756
:1030F00041FA000A06494870C820FDF713F9FFF7A6
:103100005FFCB1E76C030020A4020020F000002067
:10311000EC00002000B585B014216846FDF7AEF83C
:103120004FF4807000900120019000200290022056
:10313000039069460248FDF709F905B000BD00009B
:1031400000040240014621B1012904D0072906D11B
:1031500003E0002005E0022003E0062001E0042057
:1031600000BF00BF7047000010B50446092C03DC07
:1031700004F13000C0B210BD0A2C05DB0F2C03DCBB
:1031800004F13700C0B2F6E74FF4E87201A10BA0DA
:10319000FEF780FF2E2E5C557365725C53544D33E1
:1031A000324D425C6D6F646275735C617363696913
:1031B0005C6D6261736369692E630000300000001A
:1031C0000146302905DB392903DCA1F13000C0B20A
:1031D0007047412905DB462903DCA1F13700C0B265
:1031E000F6E7FF20F4E710B50246002003E012F8EE
:1031F000014B2318D8B20B1EA1F10104A1B2F6D1E4
:103200004342D8B210BD000010B5024800688047A4
:1032100010BD00005400002010B50248006880472F
:1032200010BD00004C00002010B502480068804727
:1032300010BD00005000002000BE704770B502466F
:103240000C46FF25FF2309E012F8010B80EA030179
:103250000648405C80EA05030548455C201EA4F151
:103260000106B4B2F0D143EA052070BD903A0008DF
:10327000903B000870B505460C4675B11C480068C7
:10328000C06840F020001A490968C86000224FF465
:1032900080711848FDF768F90CE015480068C068AF
:1032A00020F0200012490968C8600122110211486B
:1032B000FDF75AF96CB10E480068C06840F0800014
:1032C0000B490968C860012211020A48FDF74CF950
:1032D0000DE007480068C06820F0800004490968D4
:1032E000C86000224FF480710248FDF73DF970BDBF
:1032F000440100200004024000BF14480068006A36
:1033000041F21111084068B910480068006A89103C
:10331000084038B90D480068006820F001000B49EA
:103320000968086000BF002008490968486207482A
:103330000068C06820F0010004490968C8606FF0A7
:10334000010002490968086170470000040100207B
:103350006FF001000B49096808610A480068C068FD
:1033600040F0010007490968C86000200549096864
:10337000486204480068006840F00100014909689B
:10338000086070470401002038B5002548480078DF
:1033900000B904E0E32247A150A0FEF77BFE684697
:1033A00000F0BAF95448007800286FD0012802D004
:1033B00002287AD146E0FFF7CBFF9DF800003A28BB
:1033C00005D100204D4908704D49088039E09DF82D
:1033D00000000D2803D102204749087031E09DF814
:1033E0000000FFF7EDFE04464448007810B10128C4
:1033F00026D114E042480088FF280ADC2007000E8E
:10340000404909683E4A1288885401203B490870A7
:1034100016E0002038490870FFF76EFF10E03949C8
:103420000968374A128888180178214301703448A6
:103430000088401C3249088000203049087000BFD5
:1034400000BF32E09DF800002F490978884209D179
:10345000FFF752FF002028490870012000F050F9C2
:10346000054611E09DF800003A280AD100202349C2
:1034700008702349088001201F490870FFF768FF82
:1034800002E000201C4908700FE0FFE79DF80000F3
:103490003A2809D1FFF75CFF002019490880174935
:1034A000087001201449087000BF00BF284638BDCD
:1034B000100000202E2E5C557365725C53544D3302
:1034C000324D425C6D6F646275735C6173636969F0
:1034D0005C6D6261736369692E63000065536E649D
:1034E0005374617465203D3D2053544154455F54ED
:1034F000585F49444C450000110000201A0000208C
:1035000018000020140000202300002010B51048EF
:103510000078012802D0022805D100E000BF002079
:103520000B4908700FE00A480078012803D00848CA
:103530000078022800D105E040F2A71205A10F484B
:10354000FEF7A8FD00BF00BFFFF7D6FE002010BDAC
:10355000110000202E2E5C557365725C53544D3360
:10356000324D425C6D6F646275735C61736369694F
:103570005C6D6261736369692E630000903C0008B2
:1035800070B500253A48007800B905E040F24F12C6
:1035900038A142A0FEF77EFD47480078052864D296
:1035A000DFE800F05E030E474F003A24204600F0AB
:1035B000D3F802204049087000204049087054E0C8
:1035C0003F48008800282DDD3C48007810B10128D4
:1035D00027D10DE03B49096809780811FFF7C4FDC0
:1035E0000446204600F0B8F801203449087018E07D
:1035F00034490968097801F00F00FFF7B5FD04466A
:10360000204600F0A9F82F480068401C2D490860AA
:1036100000202A4908702A480088401E284908804E
:1036200000BF05E00D2000F097F803202249087044
:103630001BE02548007800F08FF804201E49087030
:1036400013E000201C490870032000F059F80546DB
:1036500000210120FFF70EFE00201749087004E04A
:1036600000210120FFF706FE00BF00BF284670BD05
:10367000110000202E2E5C557365725C53544D333F
:10368000324D425C6D6F646275735C61736369692E
:103690005C6D6261736369692E63000065526376D5
:1036A0005374617465203D3D2053544154455F522D
:1036B000585F49444C450000100000201A000020CB
:1036C000200000201C0000202300002001460020D4
:1036D000054A127832B1054A12780A700022024B6C
:1036E0001A70012070470000FD000020FC0000203F
:1036F000002002490870012070470000FD000020F2
:1037000001460120024A10700248017001207047F2
:10371000FD000020FC00002010B5044601231A46DD
:1037200021460448FDF71CFF08B1002010BD012010
:10373000FCE70000440100202DE9F04105460E465B
:1037400017461C46FFF7E6FC224631462846FEF7A0
:103750004FF80120BDE8F08101B501231A46694602
:103760000348FDF76EFF08B1002008BD0120FCE70B
:1037700044010020014601207047000038B50024B4
:103780002148007800B904E0E62220A128A0FEF735
:1037900081FC6846FFF7C0FF2C48007830B1012853
:1037A0000AD0022819D003282BD102E0FFF7D0FD60
:1037B00027E0FFF7CDFD24E00020254908809DF893
:1037C00000200888411C224B198022490A540220FB
:1037D0001E490870FFF7BCFD13E01D480088FF2854
:1037E00009DC9DF800201A490888411C184B1980F3
:1037F00018490A5402E0032014490870FFF7A8FD95
:1038000000BF00BF204638BD280000202E2E5C558A
:103810007365725C53544D33324D425C6D6F64621C
:1038200075735C7274755C6D627274752E630000E2
:1038300065536E645374617465203D3D205354415B
:1038400054455F54585F49444C450000290000200E
:1038500032000020A401002010B500241648007892
:1038600020B1022807D003280BD109E00020FFF780
:1038700047FF044618E00120FFF742FF044613E02B
:1038800012E00D48007838B10B480078022803D0C8
:1038900009480078032800D105E04FF4AD7207A174
:1038A0000F48FEF7F7FB00BF00BFFFF725FD012023
:1038B00001490870204610BD290000202E2E5C55BD
:1038C0007365725C53544D33324D425C6D6F64626C
:1038D00075735C7274755C6D627274752E63000032
:1038E000D43C000810B500241B480078012800D102
:1038F00005E040F2211219A121A0FEF7CBFB2748D9
:10390000007810B1012824D104E000210120FFF744
:10391000B1FC1EE02248008878B122490968087885
:10392000FFF71AFF1F480068401C1E4908601C482A
:103930000088401E1A4908800AE00320FFF7E0FED5
:10394000044600210120FFF795FC00201349087070
:1039500000BF00BF204610BD290000202E2E5C5560
:103960007365725C53544D33324D425C6D6F6462CB
:1039700075735C7274755C6D627274752E63000091
:10398000655263765374617465203D3D2053544104
:1039900054455F52585F49444C45000028000020C0
:1039A000300000202C000020F0B503460C461546E0
:1039B000E208A4EBC20087B20120A840401E86B2F4
:1039C000995C501C185C41EA002139413140C8B271
:1039D000F0BD00002DE9FF5F05460E469046DDF87C
:1039E0000CB0B8F1080F00DC04E0372213A11EA0D0
:1039F000FEF750FBF408A6EBC4001FFA80FA0BFA9E
:103A00000AF01FFA80FB012000FA08F0401E1FFA9E
:103A100080F9A6EBC40009FA00F01FFA80F92F5DC7
:103A2000601C285C47EA002727EA090040EA0B07E8
:103A30002F553912601C2954BDE8FF9F2E2E5C556E
:103A40007365725C53544D33324D425C6D6F6462EA
:103A500075735C66756E6374696F6E735C6D6275A9
:103A600074696C732E63000075634E426974732031
:103A70003C3D203800000000000000000000000075
:103A80000102030406070809000000000102030404
:103A900000C1814001C0804101C0804100C181401E
:103AA00001C0804100C1814000C1814001C080410E
:103AB00001C0804100C1814000C1814001C08041FE
:103AC00000C1814001C0804101C0804100C18140EE
:103AD00001C0804100C1814000C1814001C08041DE
:103AE00000C1814001C0804101C0804100C18140CE
:103AF00000C1814001C0804101C0804100C18140BE
:103B000001C0804100C1814000C1814001C08041AD
:103B100001C0804100C1814000C1814001C080419D
:103B200000C1814001C0804101C0804100C181408D
:103B300000C1814001C0804101C0804100C181407D
:103B400001C0804100C1814000C1814001C080416D
:103B500000C1814001C0804101C0804100C181405D
:103B600001C0804100C1814000C1814001C080414D
:103B700001C0804100C1814000C1814001C080413D
:103B800000C1814001C0804101C0804100C181402D
:103B900000C0C101C30302C2C60607C705C5C404ED
:103BA000CC0C0DCD0FCFCE0E0ACACB0BC90908C85D
:103BB000D81819D91BDBDA1A1EDEDF1FDD1D1CDC4D
:103BC00014D4D515D71716D6D21213D311D1D010BD
:103BD000F03031F133F3F23236F6F737F53534F4AD
:103BE0003CFCFD3DFF3F3EFEFA3A3BFB39F9F8381D
:103BF00028E8E929EB2B2AEAEE2E2FEF2DEDEC2C0D
:103C0000E42425E527E7E62622E2E323E12120E07C
:103C1000A06061A163A3A26266A6A767A56564A46C
:103C20006CACAD6DAF6F6EAEAA6A6BAB69A9A868DC
:103C300078B8B979BB7B7ABABE7E7FBF7DBDBC7CCC
:103C4000B47475B577B7B67672B2B373B17170B03C
:103C5000509091519353529296565797559594542C
:103C60009C5C5D9D5F9F9E5E5A9A9B5B995958989C
:103C7000884849894B8B8A4A4E8E8F4F8D4D4C8C8C
:103C800044848545874746868242438341818040FC
:103C90002820655263765374617465203D3D20533E
:103CA000544154455F52585F5243562029207C7C32
:103CB000202820655263765374617465203D3D2051
:103CC00053544154455F52585F574149545F454FE3
:103CD000462029002820655263765374617465205C
:103CE0003D3D2053544154455F52585F494E49541D
:103CF0002029207C7C2028206552637653746174CF
:103D000065203D3D2053544154455F52585F524316
:103D1000562029207C7C20282065526376537461CC
:103D20007465203D3D2053544154455F52585F45D2
:103D300052524F5220290000583D00080000002038
:103D400004010000302100085C3E0008040100204E
:103D500034070000402100080000000010000000AF
:103D6000010000000024F40000000000A401002075
:103D70000000000000000000000000000000000043
:103D80000000000000000000000000000000020031
:103D90000000000000000000000000000000000023
:103DA0000000000000000000000000000000000013
:103DB000000000000000000011000000A52600081F
:103DC000040000004325000803000000B724000899
:103DD000100000000F280008060000003D27000822
:103DE00017000000CF250008010000005D23000837
:103DF00005000000CD2600080F0000007F27000806
:103E0000020000000B240008000000000000000079
:103E100000000000000000000000000000000000A2
:103E20000000000000000000000000000000000092
:103E30000000000000000000000000000000000082
:103E40000000000000000000000000000000000072
:0C3E500000000100000000000000000065
:04000005080001AD41
:00000001FF
